{
  "_format": "hh-sol-artifact-1",
  "contractName": "LegionOfRabbits",
  "sourceName": "contracts/LegionOfRabbits.sol",
  "abi": [
    {
      "inputs": [],
      "stateMutability": "nonpayable",
      "type": "constructor"
    },
    {
      "inputs": [],
      "name": "ApprovalCallerNotOwnerNorApproved",
      "type": "error"
    },
    {
      "inputs": [],
      "name": "ApprovalQueryForNonexistentToken",
      "type": "error"
    },
    {
      "inputs": [],
      "name": "BalanceQueryForZeroAddress",
      "type": "error"
    },
    {
      "inputs": [],
      "name": "MintERC2309QuantityExceedsLimit",
      "type": "error"
    },
    {
      "inputs": [],
      "name": "MintToZeroAddress",
      "type": "error"
    },
    {
      "inputs": [],
      "name": "MintZeroQuantity",
      "type": "error"
    },
    {
      "inputs": [],
      "name": "OwnerQueryForNonexistentToken",
      "type": "error"
    },
    {
      "inputs": [],
      "name": "OwnershipNotInitializedForExtraData",
      "type": "error"
    },
    {
      "inputs": [],
      "name": "TransferCallerNotOwnerNorApproved",
      "type": "error"
    },
    {
      "inputs": [],
      "name": "TransferFromIncorrectOwner",
      "type": "error"
    },
    {
      "inputs": [],
      "name": "TransferToNonERC721ReceiverImplementer",
      "type": "error"
    },
    {
      "inputs": [],
      "name": "TransferToZeroAddress",
      "type": "error"
    },
    {
      "inputs": [],
      "name": "URIQueryForNonexistentToken",
      "type": "error"
    },
    {
      "anonymous": false,
      "inputs": [
        {
          "indexed": true,
          "internalType": "address",
          "name": "owner",
          "type": "address"
        },
        {
          "indexed": true,
          "internalType": "address",
          "name": "approved",
          "type": "address"
        },
        {
          "indexed": true,
          "internalType": "uint256",
          "name": "tokenId",
          "type": "uint256"
        }
      ],
      "name": "Approval",
      "type": "event"
    },
    {
      "anonymous": false,
      "inputs": [
        {
          "indexed": true,
          "internalType": "address",
          "name": "owner",
          "type": "address"
        },
        {
          "indexed": true,
          "internalType": "address",
          "name": "operator",
          "type": "address"
        },
        {
          "indexed": false,
          "internalType": "bool",
          "name": "approved",
          "type": "bool"
        }
      ],
      "name": "ApprovalForAll",
      "type": "event"
    },
    {
      "anonymous": false,
      "inputs": [
        {
          "indexed": true,
          "internalType": "uint256",
          "name": "fromTokenId",
          "type": "uint256"
        },
        {
          "indexed": false,
          "internalType": "uint256",
          "name": "toTokenId",
          "type": "uint256"
        },
        {
          "indexed": true,
          "internalType": "address",
          "name": "from",
          "type": "address"
        },
        {
          "indexed": true,
          "internalType": "address",
          "name": "to",
          "type": "address"
        }
      ],
      "name": "ConsecutiveTransfer",
      "type": "event"
    },
    {
      "anonymous": false,
      "inputs": [
        {
          "indexed": true,
          "internalType": "address",
          "name": "previousOwner",
          "type": "address"
        },
        {
          "indexed": true,
          "internalType": "address",
          "name": "newOwner",
          "type": "address"
        }
      ],
      "name": "OwnershipTransferred",
      "type": "event"
    },
    {
      "anonymous": false,
      "inputs": [
        {
          "indexed": false,
          "internalType": "address",
          "name": "account",
          "type": "address"
        }
      ],
      "name": "Paused",
      "type": "event"
    },
    {
      "anonymous": false,
      "inputs": [
        {
          "indexed": true,
          "internalType": "address",
          "name": "from",
          "type": "address"
        },
        {
          "indexed": true,
          "internalType": "address",
          "name": "to",
          "type": "address"
        },
        {
          "indexed": true,
          "internalType": "uint256",
          "name": "tokenId",
          "type": "uint256"
        }
      ],
      "name": "Transfer",
      "type": "event"
    },
    {
      "anonymous": false,
      "inputs": [
        {
          "indexed": false,
          "internalType": "address",
          "name": "account",
          "type": "address"
        }
      ],
      "name": "Unpaused",
      "type": "event"
    },
    {
      "inputs": [
        {
          "internalType": "address",
          "name": "to",
          "type": "address"
        },
        {
          "internalType": "uint256",
          "name": "tokenId",
          "type": "uint256"
        }
      ],
      "name": "approve",
      "outputs": [],
      "stateMutability": "payable",
      "type": "function"
    },
    {
      "inputs": [
        {
          "internalType": "address",
          "name": "owner",
          "type": "address"
        }
      ],
      "name": "balanceOf",
      "outputs": [
        {
          "internalType": "uint256",
          "name": "",
          "type": "uint256"
        }
      ],
      "stateMutability": "view",
      "type": "function"
    },
    {
      "inputs": [
        {
          "internalType": "uint256",
          "name": "tokenId",
          "type": "uint256"
        }
      ],
      "name": "getApproved",
      "outputs": [
        {
          "internalType": "address",
          "name": "",
          "type": "address"
        }
      ],
      "stateMutability": "view",
      "type": "function"
    },
    {
      "inputs": [
        {
          "internalType": "address",
          "name": "owner",
          "type": "address"
        },
        {
          "internalType": "address",
          "name": "operator",
          "type": "address"
        }
      ],
      "name": "isApprovedForAll",
      "outputs": [
        {
          "internalType": "bool",
          "name": "",
          "type": "bool"
        }
      ],
      "stateMutability": "view",
      "type": "function"
    },
    {
      "inputs": [],
      "name": "maxPerWallet",
      "outputs": [
        {
          "internalType": "uint256",
          "name": "",
          "type": "uint256"
        }
      ],
      "stateMutability": "view",
      "type": "function"
    },
    {
      "inputs": [],
      "name": "maxSupply",
      "outputs": [
        {
          "internalType": "uint256",
          "name": "",
          "type": "uint256"
        }
      ],
      "stateMutability": "view",
      "type": "function"
    },
    {
      "inputs": [],
      "name": "name",
      "outputs": [
        {
          "internalType": "string",
          "name": "",
          "type": "string"
        }
      ],
      "stateMutability": "view",
      "type": "function"
    },
    {
      "inputs": [],
      "name": "owner",
      "outputs": [
        {
          "internalType": "address",
          "name": "",
          "type": "address"
        }
      ],
      "stateMutability": "view",
      "type": "function"
    },
    {
      "inputs": [
        {
          "internalType": "uint256",
          "name": "tokenId",
          "type": "uint256"
        }
      ],
      "name": "ownerOf",
      "outputs": [
        {
          "internalType": "address",
          "name": "",
          "type": "address"
        }
      ],
      "stateMutability": "view",
      "type": "function"
    },
    {
      "inputs": [],
      "name": "pause",
      "outputs": [],
      "stateMutability": "nonpayable",
      "type": "function"
    },
    {
      "inputs": [],
      "name": "paused",
      "outputs": [
        {
          "internalType": "bool",
          "name": "",
          "type": "bool"
        }
      ],
      "stateMutability": "view",
      "type": "function"
    },
    {
      "inputs": [],
      "name": "renounceOwnership",
      "outputs": [],
      "stateMutability": "nonpayable",
      "type": "function"
    },
    {
      "inputs": [
        {
          "internalType": "uint256",
          "name": "_quantity",
          "type": "uint256"
        }
      ],
      "name": "safeMint",
      "outputs": [],
      "stateMutability": "nonpayable",
      "type": "function"
    },
    {
      "inputs": [
        {
          "internalType": "address",
          "name": "from",
          "type": "address"
        },
        {
          "internalType": "address",
          "name": "to",
          "type": "address"
        },
        {
          "internalType": "uint256",
          "name": "tokenId",
          "type": "uint256"
        }
      ],
      "name": "safeTransferFrom",
      "outputs": [],
      "stateMutability": "payable",
      "type": "function"
    },
    {
      "inputs": [
        {
          "internalType": "address",
          "name": "from",
          "type": "address"
        },
        {
          "internalType": "address",
          "name": "to",
          "type": "address"
        },
        {
          "internalType": "uint256",
          "name": "tokenId",
          "type": "uint256"
        },
        {
          "internalType": "bytes",
          "name": "_data",
          "type": "bytes"
        }
      ],
      "name": "safeTransferFrom",
      "outputs": [],
      "stateMutability": "payable",
      "type": "function"
    },
    {
      "inputs": [
        {
          "internalType": "address",
          "name": "operator",
          "type": "address"
        },
        {
          "internalType": "bool",
          "name": "approved",
          "type": "bool"
        }
      ],
      "name": "setApprovalForAll",
      "outputs": [],
      "stateMutability": "nonpayable",
      "type": "function"
    },
    {
      "inputs": [
        {
          "internalType": "bytes4",
          "name": "interfaceId",
          "type": "bytes4"
        }
      ],
      "name": "supportsInterface",
      "outputs": [
        {
          "internalType": "bool",
          "name": "",
          "type": "bool"
        }
      ],
      "stateMutability": "view",
      "type": "function"
    },
    {
      "inputs": [],
      "name": "symbol",
      "outputs": [
        {
          "internalType": "string",
          "name": "",
          "type": "string"
        }
      ],
      "stateMutability": "view",
      "type": "function"
    },
    {
      "inputs": [
        {
          "internalType": "uint256",
          "name": "tokenId",
          "type": "uint256"
        }
      ],
      "name": "tokenURI",
      "outputs": [
        {
          "internalType": "string",
          "name": "",
          "type": "string"
        }
      ],
      "stateMutability": "view",
      "type": "function"
    },
    {
      "inputs": [],
      "name": "totalSupply",
      "outputs": [
        {
          "internalType": "uint256",
          "name": "",
          "type": "uint256"
        }
      ],
      "stateMutability": "view",
      "type": "function"
    },
    {
      "inputs": [
        {
          "internalType": "address",
          "name": "from",
          "type": "address"
        },
        {
          "internalType": "address",
          "name": "to",
          "type": "address"
        },
        {
          "internalType": "uint256",
          "name": "tokenId",
          "type": "uint256"
        }
      ],
      "name": "transferFrom",
      "outputs": [],
      "stateMutability": "payable",
      "type": "function"
    },
    {
      "inputs": [
        {
          "internalType": "address",
          "name": "newOwner",
          "type": "address"
        }
      ],
      "name": "transferOwnership",
      "outputs": [],
      "stateMutability": "nonpayable",
      "type": "function"
    },
    {
      "inputs": [],
      "name": "unpause",
      "outputs": [],
      "stateMutability": "nonpayable",
      "type": "function"
    },
    {
      "inputs": [
        {
          "internalType": "address",
          "name": "",
          "type": "address"
        }
      ],
      "name": "walletMinted",
      "outputs": [
        {
          "internalType": "uint256",
          "name": "",
          "type": "uint256"
        }
      ],
      "stateMutability": "view",
      "type": "function"
    },
    {
      "inputs": [
        {
          "internalType": "address",
          "name": "_addr",
          "type": "address"
        }
      ],
      "name": "withdraw",
      "outputs": [],
      "stateMutability": "nonpayable",
      "type": "function"
    }
  ],
  "bytecode": "0x60806040523480156200001157600080fd5b506040518060400160405280601181526020017f4c6567696f6e206f6620526162626974730000000000000000000000000000008152506040518060400160405280600481526020017f4c4f524200000000000000000000000000000000000000000000000000000000815250816002908051906020019062000096929190620001dc565b508060039080519060200190620000af929190620001dc565b50620000c06200010960201b60201c565b6000819055505050620000e8620000dc6200010e60201b60201c565b6200011660201b60201c565b6000600860146101000a81548160ff021916908315150217905550620002f1565b600090565b600033905090565b6000600860009054906101000a900473ffffffffffffffffffffffffffffffffffffffff16905081600860006101000a81548173ffffffffffffffffffffffffffffffffffffffff021916908373ffffffffffffffffffffffffffffffffffffffff1602179055508173ffffffffffffffffffffffffffffffffffffffff168173ffffffffffffffffffffffffffffffffffffffff167f8be0079c531659141344cd1fd0a4f28419497f9722a3daafe3b4186f6b6457e060405160405180910390a35050565b828054620001ea906200028c565b90600052602060002090601f0160209004810192826200020e57600085556200025a565b82601f106200022957805160ff19168380011785556200025a565b828001600101855582156200025a579182015b82811115620002595782518255916020019190600101906200023c565b5b5090506200026991906200026d565b5090565b5b80821115620002885760008160009055506001016200026e565b5090565b60006002820490506001821680620002a557607f821691505b60208210811415620002bc57620002bb620002c2565b5b50919050565b7f4e487b7100000000000000000000000000000000000000000000000000000000600052602260045260246000fd5b61274280620003016000396000f3fe6080604052600436106101665760003560e01c80636352211e116100d1578063a22cb4651161008a578063d3738fc811610064578063d3738fc8146104ce578063d5abeb011461050b578063e985e9c514610536578063f2fde38b1461057357610166565b8063a22cb4651461044c578063b88d4fde14610475578063c87b56dd1461049157610166565b80636352211e1461034e57806370a082311461038b578063715018a6146103c85780638456cb59146103df5780638da5cb5b146103f657806395d89b411461042157610166565b806331c864e81161012357806331c864e8146102735780633f4ba83a1461029c57806342842e0e146102b3578063453c2310146102cf57806351cff8d9146102fa5780635c975abb1461032357610166565b806301ffc9a71461016b57806306fdde03146101a8578063081812fc146101d3578063095ea7b31461021057806318160ddd1461022c57806323b872dd14610257575b600080fd5b34801561017757600080fd5b50610192600480360381019061018d9190611e81565b61059c565b60405161019f9190612135565b60405180910390f35b3480156101b457600080fd5b506101bd61062e565b6040516101ca9190612150565b60405180910390f35b3480156101df57600080fd5b506101fa60048036038101906101f59190611edb565b6106c0565b60405161020791906120ce565b60405180910390f35b61022a60048036038101906102259190611e41565b61073f565b005b34801561023857600080fd5b50610241610883565b60405161024e9190612232565b60405180910390f35b610271600480360381019061026c9190611d2b565b61089a565b005b34801561027f57600080fd5b5061029a60048036038101906102959190611edb565b610bbf565b005b3480156102a857600080fd5b506102b1610d2d565b005b6102cd60048036038101906102c89190611d2b565b610d3f565b005b3480156102db57600080fd5b506102e4610d5f565b6040516102f19190612232565b60405180910390f35b34801561030657600080fd5b50610321600480360381019061031c9190611cbe565b610d64565b005b34801561032f57600080fd5b50610338610dbc565b6040516103459190612135565b60405180910390f35b34801561035a57600080fd5b5061037560048036038101906103709190611edb565b610dd3565b60405161038291906120ce565b60405180910390f35b34801561039757600080fd5b506103b260048036038101906103ad9190611cbe565b610de5565b6040516103bf9190612232565b60405180910390f35b3480156103d457600080fd5b506103dd610e9e565b005b3480156103eb57600080fd5b506103f4610eb2565b005b34801561040257600080fd5b5061040b610ec4565b60405161041891906120ce565b60405180910390f35b34801561042d57600080fd5b50610436610eee565b6040516104439190612150565b60405180910390f35b34801561045857600080fd5b50610473600480360381019061046e9190611e01565b610f80565b005b61048f600480360381019061048a9190611d7e565b61108b565b005b34801561049d57600080fd5b506104b860048036038101906104b39190611edb565b6110fe565b6040516104c59190612150565b60405180910390f35b3480156104da57600080fd5b506104f560048036038101906104f09190611cbe565b61119d565b6040516105029190612232565b60405180910390f35b34801561051757600080fd5b506105206111b5565b60405161052d9190612232565b60405180910390f35b34801561054257600080fd5b5061055d60048036038101906105589190611ceb565b6111ba565b60405161056a9190612135565b60405180910390f35b34801561057f57600080fd5b5061059a60048036038101906105959190611cbe565b61124e565b005b60006301ffc9a760e01b827bffffffffffffffffffffffffffffffffffffffffffffffffffffffff191614806105f757506380ac58cd60e01b827bffffffffffffffffffffffffffffffffffffffffffffffffffffffff1916145b806106275750635b5e139f60e01b827bffffffffffffffffffffffffffffffffffffffffffffffffffffffff1916145b9050919050565b60606002805461063d906123f2565b80601f0160208091040260200160405190810160405280929190818152602001828054610669906123f2565b80156106b65780601f1061068b576101008083540402835291602001916106b6565b820191906000526020600020905b81548152906001019060200180831161069957829003601f168201915b5050505050905090565b60006106cb826112d2565b610701576040517fcf4700e400000000000000000000000000000000000000000000000000000000815260040160405180910390fd5b6006600083815260200190815260200160002060000160009054906101000a900473ffffffffffffffffffffffffffffffffffffffff169050919050565b600061074a82610dd3565b90508073ffffffffffffffffffffffffffffffffffffffff1661076b611331565b73ffffffffffffffffffffffffffffffffffffffff16146107ce5761079781610792611331565b6111ba565b6107cd576040517fcfb3b94200000000000000000000000000000000000000000000000000000000815260040160405180910390fd5b5b826006600084815260200190815260200160002060000160006101000a81548173ffffffffffffffffffffffffffffffffffffffff021916908373ffffffffffffffffffffffffffffffffffffffff160217905550818373ffffffffffffffffffffffffffffffffffffffff168273ffffffffffffffffffffffffffffffffffffffff167f8c5be1e5ebec7d5bd14f71427d1e84f3dd0314c0f7b2291e5b200ac8c7c3b92560405160405180910390a4505050565b600061088d611339565b6001546000540303905090565b60006108a58261133e565b90508373ffffffffffffffffffffffffffffffffffffffff168173ffffffffffffffffffffffffffffffffffffffff161461090c576040517fa114810000000000000000000000000000000000000000000000000000000000815260040160405180910390fd5b6000806109188461140c565b9150915061092e8187610929611331565b611433565b61097a576109438661093e611331565b6111ba565b610979576040517f59c896be00000000000000000000000000000000000000000000000000000000815260040160405180910390fd5b5b600073ffffffffffffffffffffffffffffffffffffffff168573ffffffffffffffffffffffffffffffffffffffff1614156109e1576040517fea553b3400000000000000000000000000000000000000000000000000000000815260040160405180910390fd5b6109ee8686866001611477565b80156109f957600082555b600560008773ffffffffffffffffffffffffffffffffffffffff1673ffffffffffffffffffffffffffffffffffffffff168152602001908152602001600020600081546001900391905081905550600560008673ffffffffffffffffffffffffffffffffffffffff1673ffffffffffffffffffffffffffffffffffffffff1681526020019081526020016000206000815460010191905081905550610ac785610aa388888761147d565b7c0200000000000000000000000000000000000000000000000000000000176114a5565b600460008681526020019081526020016000208190555060007c020000000000000000000000000000000000000000000000000000000084161415610b4f576000600185019050600060046000838152602001908152602001600020541415610b4d576000548114610b4c578360046000838152602001908152602001600020819055505b5b505b838573ffffffffffffffffffffffffffffffffffffffff168773ffffffffffffffffffffffffffffffffffffffff167fddf252ad1be2c89b69c2b068fc378daa952ba7f163c4a11628f55a4df523b3ef60405160405180910390a4610bb786868660016114d0565b505050505050565b610bc76114d6565b601481610bd2610883565b610bdc91906122e6565b10610c1c576040517f08c379a0000000000000000000000000000000000000000000000000000000008152600401610c13906121d2565b60405180910390fd5b600181600960003373ffffffffffffffffffffffffffffffffffffffff1673ffffffffffffffffffffffffffffffffffffffff16815260200190815260200160002054610c6991906122e6565b1115610caa576040517f08c379a0000000000000000000000000000000000000000000000000000000008152600401610ca190612212565b60405180910390fd5b610cb43382611520565b60005b81811015610d29576001600960003373ffffffffffffffffffffffffffffffffffffffff1673ffffffffffffffffffffffffffffffffffffffff1681526020019081526020016000206000828254610d0f91906122e6565b925050819055508080610d2190612455565b915050610cb7565b5050565b610d3561153e565b610d3d6115bc565b565b610d5a8383836040518060200160405280600081525061108b565b505050565b600181565b610d6c61153e565b60004790508173ffffffffffffffffffffffffffffffffffffffff166108fc829081150290604051600060405180830381858888f19350505050158015610db7573d6000803e3d6000fd5b505050565b6000600860149054906101000a900460ff16905090565b6000610dde8261133e565b9050919050565b60008073ffffffffffffffffffffffffffffffffffffffff168273ffffffffffffffffffffffffffffffffffffffff161415610e4d576040517f8f4eb60400000000000000000000000000000000000000000000000000000000815260040160405180910390fd5b67ffffffffffffffff600560008473ffffffffffffffffffffffffffffffffffffffff1673ffffffffffffffffffffffffffffffffffffffff16815260200190815260200160002054169050919050565b610ea661153e565b610eb0600061161f565b565b610eba61153e565b610ec26116e5565b565b6000600860009054906101000a900473ffffffffffffffffffffffffffffffffffffffff16905090565b606060038054610efd906123f2565b80601f0160208091040260200160405190810160405280929190818152602001828054610f29906123f2565b8015610f765780601f10610f4b57610100808354040283529160200191610f76565b820191906000526020600020905b815481529060010190602001808311610f5957829003601f168201915b5050505050905090565b8060076000610f8d611331565b73ffffffffffffffffffffffffffffffffffffffff1673ffffffffffffffffffffffffffffffffffffffff16815260200190815260200160002060008473ffffffffffffffffffffffffffffffffffffffff1673ffffffffffffffffffffffffffffffffffffffff16815260200190815260200160002060006101000a81548160ff0219169083151502179055508173ffffffffffffffffffffffffffffffffffffffff1661103a611331565b73ffffffffffffffffffffffffffffffffffffffff167f17307eab39ab6107e8899845ad3d59bd9653f200f220920489ca2b5937696c318360405161107f9190612135565b60405180910390a35050565b61109684848461089a565b60008373ffffffffffffffffffffffffffffffffffffffff163b146110f8576110c184848484611748565b6110f7576040517fd1a57ed600000000000000000000000000000000000000000000000000000000815260040160405180910390fd5b5b50505050565b6060611109826112d2565b61113f576040517fa14c4b5000000000000000000000000000000000000000000000000000000000815260040160405180910390fd5b60006111496118a8565b905060008151141561116a5760405180602001604052806000815250611195565b80611174846118c8565b6040516020016111859291906120aa565b6040516020818303038152906040525b915050919050565b60096020528060005260406000206000915090505481565b601481565b6000600760008473ffffffffffffffffffffffffffffffffffffffff1673ffffffffffffffffffffffffffffffffffffffff16815260200190815260200160002060008373ffffffffffffffffffffffffffffffffffffffff1673ffffffffffffffffffffffffffffffffffffffff16815260200190815260200160002060009054906101000a900460ff16905092915050565b61125661153e565b600073ffffffffffffffffffffffffffffffffffffffff168173ffffffffffffffffffffffffffffffffffffffff1614156112c6576040517f08c379a00000000000000000000000000000000000000000000000000000000081526004016112bd90612192565b60405180910390fd5b6112cf8161161f565b50565b6000816112dd611339565b111580156112ec575060005482105b801561132a575060007c0100000000000000000000000000000000000000000000000000000000600460008581526020019081526020016000205416145b9050919050565b600033905090565b600090565b6000808290508061134d611339565b116113d5576000548110156113d45760006004600083815260200190815260200160002054905060007c0100000000000000000000000000000000000000000000000000000000821614156113d2575b60008114156113c857600460008360019003935083815260200190815260200160002054905061139d565b8092505050611407565b505b5b6040517fdf2d9b4200000000000000000000000000000000000000000000000000000000815260040160405180910390fd5b919050565b60008060006006600085815260200190815260200160002090508092508254915050915091565b600073ffffffffffffffffffffffffffffffffffffffff8316925073ffffffffffffffffffffffffffffffffffffffff821691508382148383141790509392505050565b50505050565b60008060e883901c905060e8611494868684611921565b62ffffff16901b9150509392505050565b600073ffffffffffffffffffffffffffffffffffffffff83169250814260a01b178317905092915050565b50505050565b6114de610dbc565b1561151e576040517f08c379a0000000000000000000000000000000000000000000000000000000008152600401611515906121b2565b60405180910390fd5b565b61153a82826040518060200160405280600081525061192a565b5050565b6115466119c7565b73ffffffffffffffffffffffffffffffffffffffff16611564610ec4565b73ffffffffffffffffffffffffffffffffffffffff16146115ba576040517f08c379a00000000000000000000000000000000000000000000000000000000081526004016115b1906121f2565b60405180910390fd5b565b6115c46119cf565b6000600860146101000a81548160ff0219169083151502179055507f5db9ee0a495bf2e6ff9c91a7834c1ba4fdd244a5e8aa4e537bd38aeae4b073aa6116086119c7565b60405161161591906120ce565b60405180910390a1565b6000600860009054906101000a900473ffffffffffffffffffffffffffffffffffffffff16905081600860006101000a81548173ffffffffffffffffffffffffffffffffffffffff021916908373ffffffffffffffffffffffffffffffffffffffff1602179055508173ffffffffffffffffffffffffffffffffffffffff168173ffffffffffffffffffffffffffffffffffffffff167f8be0079c531659141344cd1fd0a4f28419497f9722a3daafe3b4186f6b6457e060405160405180910390a35050565b6116ed6114d6565b6001600860146101000a81548160ff0219169083151502179055507f62e78cea01bee320cd4e420270b5ea74000d11b0c9f74754ebdbfc544b05a2586117316119c7565b60405161173e91906120ce565b60405180910390a1565b60008373ffffffffffffffffffffffffffffffffffffffff1663150b7a0261176e611331565b8786866040518563ffffffff1660e01b815260040161179094939291906120e9565b602060405180830381600087803b1580156117aa57600080fd5b505af19250505080156117db57506040513d601f19601f820116820180604052508101906117d89190611eae565b60015b611855573d806000811461180b576040519150601f19603f3d011682016040523d82523d6000602084013e611810565b606091505b5060008151141561184d576040517fd1a57ed600000000000000000000000000000000000000000000000000000000815260040160405180910390fd5b805181602001fd5b63150b7a0260e01b7bffffffffffffffffffffffffffffffffffffffffffffffffffffffff1916817bffffffffffffffffffffffffffffffffffffffffffffffffffffffff191614915050949350505050565b60606040518060800160405280604481526020016126c960449139905090565b606060a060405101806040526020810391506000825281835b60011561190c57600184039350600a81066030018453600a81049050806119075761190c565b6118e1565b50828103602084039350808452505050919050565b60009392505050565b6119348383611a18565b60008373ffffffffffffffffffffffffffffffffffffffff163b146119c257600080549050600083820390505b6119746000868380600101945086611748565b6119aa576040517fd1a57ed600000000000000000000000000000000000000000000000000000000815260040160405180910390fd5b8181106119615781600054146119bf57600080fd5b50505b505050565b600033905090565b6119d7610dbc565b611a16576040517f08c379a0000000000000000000000000000000000000000000000000000000008152600401611a0d90612172565b60405180910390fd5b565b6000805490506000821415611a59576040517fb562e8dd00000000000000000000000000000000000000000000000000000000815260040160405180910390fd5b611a666000848385611477565b600160406001901b178202600560008573ffffffffffffffffffffffffffffffffffffffff1673ffffffffffffffffffffffffffffffffffffffff16815260200190815260200160002060008282540192505081905550611add83611ace600086600061147d565b611ad785611bd5565b176114a5565b6004600083815260200190815260200160002081905550600080838301905073ffffffffffffffffffffffffffffffffffffffff85169150828260007fddf252ad1be2c89b69c2b068fc378daa952ba7f163c4a11628f55a4df523b3ef600080a4600183015b818114611b7e57808360007fddf252ad1be2c89b69c2b068fc378daa952ba7f163c4a11628f55a4df523b3ef600080a4600181019050611b43565b506000821415611bba576040517f2e07630000000000000000000000000000000000000000000000000000000000815260040160405180910390fd5b806000819055505050611bd060008483856114d0565b505050565b60006001821460e11b9050919050565b6000611bf8611bf384612272565b61224d565b905082815260208101848484011115611c1457611c13612530565b5b611c1f8482856123b0565b509392505050565b600081359050611c368161266c565b92915050565b600081359050611c4b81612683565b92915050565b600081359050611c608161269a565b92915050565b600081519050611c758161269a565b92915050565b600082601f830112611c9057611c8f61252b565b5b8135611ca0848260208601611be5565b91505092915050565b600081359050611cb8816126b1565b92915050565b600060208284031215611cd457611cd361253a565b5b6000611ce284828501611c27565b91505092915050565b60008060408385031215611d0257611d0161253a565b5b6000611d1085828601611c27565b9250506020611d2185828601611c27565b9150509250929050565b600080600060608486031215611d4457611d4361253a565b5b6000611d5286828701611c27565b9350506020611d6386828701611c27565b9250506040611d7486828701611ca9565b9150509250925092565b60008060008060808587031215611d9857611d9761253a565b5b6000611da687828801611c27565b9450506020611db787828801611c27565b9350506040611dc887828801611ca9565b925050606085013567ffffffffffffffff811115611de957611de8612535565b5b611df587828801611c7b565b91505092959194509250565b60008060408385031215611e1857611e1761253a565b5b6000611e2685828601611c27565b9250506020611e3785828601611c3c565b9150509250929050565b60008060408385031215611e5857611e5761253a565b5b6000611e6685828601611c27565b9250506020611e7785828601611ca9565b9150509250929050565b600060208284031215611e9757611e9661253a565b5b6000611ea584828501611c51565b91505092915050565b600060208284031215611ec457611ec361253a565b5b6000611ed284828501611c66565b91505092915050565b600060208284031215611ef157611ef061253a565b5b6000611eff84828501611ca9565b91505092915050565b611f118161233c565b82525050565b611f208161234e565b82525050565b6000611f31826122a3565b611f3b81856122b9565b9350611f4b8185602086016123bf565b611f548161253f565b840191505092915050565b6000611f6a826122ae565b611f7481856122ca565b9350611f848185602086016123bf565b611f8d8161253f565b840191505092915050565b6000611fa3826122ae565b611fad81856122db565b9350611fbd8185602086016123bf565b80840191505092915050565b6000611fd66014836122ca565b9150611fe182612550565b602082019050919050565b6000611ff96026836122ca565b915061200482612579565b604082019050919050565b600061201c6010836122ca565b9150612027826125c8565b602082019050919050565b600061203f600c836122ca565b915061204a826125f1565b602082019050919050565b60006120626020836122ca565b915061206d8261261a565b602082019050919050565b60006120856017836122ca565b915061209082612643565b602082019050919050565b6120a4816123a6565b82525050565b60006120b68285611f98565b91506120c28284611f98565b91508190509392505050565b60006020820190506120e36000830184611f08565b92915050565b60006080820190506120fe6000830187611f08565b61210b6020830186611f08565b612118604083018561209b565b818103606083015261212a8184611f26565b905095945050505050565b600060208201905061214a6000830184611f17565b92915050565b6000602082019050818103600083015261216a8184611f5f565b905092915050565b6000602082019050818103600083015261218b81611fc9565b9050919050565b600060208201905081810360008301526121ab81611fec565b9050919050565b600060208201905081810360008301526121cb8161200f565b9050919050565b600060208201905081810360008301526121eb81612032565b9050919050565b6000602082019050818103600083015261220b81612055565b9050919050565b6000602082019050818103600083015261222b81612078565b9050919050565b6000602082019050612247600083018461209b565b92915050565b6000612257612268565b90506122638282612424565b919050565b6000604051905090565b600067ffffffffffffffff82111561228d5761228c6124fc565b5b6122968261253f565b9050602081019050919050565b600081519050919050565b600081519050919050565b600082825260208201905092915050565b600082825260208201905092915050565b600081905092915050565b60006122f1826123a6565b91506122fc836123a6565b9250827fffffffffffffffffffffffffffffffffffffffffffffffffffffffffffffffff038211156123315761233061249e565b5b828201905092915050565b600061234782612386565b9050919050565b60008115159050919050565b60007fffffffff0000000000000000000000000000000000000000000000000000000082169050919050565b600073ffffffffffffffffffffffffffffffffffffffff82169050919050565b6000819050919050565b82818337600083830152505050565b60005b838110156123dd5780820151818401526020810190506123c2565b838111156123ec576000848401525b50505050565b6000600282049050600182168061240a57607f821691505b6020821081141561241e5761241d6124cd565b5b50919050565b61242d8261253f565b810181811067ffffffffffffffff8211171561244c5761244b6124fc565b5b80604052505050565b6000612460826123a6565b91507fffffffffffffffffffffffffffffffffffffffffffffffffffffffffffffffff8214156124935761249261249e565b5b600182019050919050565b7f4e487b7100000000000000000000000000000000000000000000000000000000600052601160045260246000fd5b7f4e487b7100000000000000000000000000000000000000000000000000000000600052602260045260246000fd5b7f4e487b7100000000000000000000000000000000000000000000000000000000600052604160045260246000fd5b600080fd5b600080fd5b600080fd5b600080fd5b6000601f19601f8301169050919050565b7f5061757361626c653a206e6f7420706175736564000000000000000000000000600082015250565b7f4f776e61626c653a206e6577206f776e657220697320746865207a65726f206160008201527f6464726573730000000000000000000000000000000000000000000000000000602082015250565b7f5061757361626c653a2070617573656400000000000000000000000000000000600082015250565b7f576520736f6c64206f7574210000000000000000000000000000000000000000600082015250565b7f4f776e61626c653a2063616c6c6572206973206e6f7420746865206f776e6572600082015250565b7f4d6178207065722057616c6c6574204578636565646564000000000000000000600082015250565b6126758161233c565b811461268057600080fd5b50565b61268c8161234e565b811461269757600080fd5b50565b6126a38161235a565b81146126ae57600080fd5b50565b6126ba816123a6565b81146126c557600080fd5b5056fe68747470733a2f2f697066732e696f2f697066732f516d64594d52514364316a6a76546e6e587a62674b3844686836726456706263724c396346396a375339557565312fa2646970667358221220b86d673a2d28b331dc953c6100a0192fc845cd75102914c6fa1ebee9d4241a5d64736f6c63430008070033",
  "linkReferences": {},
  "deployedLinkReferences": {}
}